:020000040800F2
:1000000068050020C9000008211B00088D100008A9
:1000100000000000000000000000000000000000E0
:100020000000000000000000000000006B1B000842
:100030000000000000000000691B00086D1B0008A4
:10004000DB00000800000000DB000008DB00000807
:10005000DB000008DB000008DB000008DB00000814
:1000600000000000DB000008DB000008DB000008E7
:10007000DB000008DB000008DB00000800000000D7
:10008000DB000008DB00000800000000DB000008C7
:10009000DB000008DB000008DB000008911000080E
:1000A000DB000008DB000008DB000008DB000008C4
:1000B000DB0000080348854600F03CF80048004794
:1000C0006D1E00086805002004488047044800476A
:1000D000FEE7FEE7FEE7FEE7FEE7FEE7D91B0008C6
:1000E000B500000830B50B4601460020202201244F
:1000F00009E00D46D5409D4205D31D469540491B5C
:100100002546954040191546521E002DF1DC30BDA4
:10011000D2B201E00270401C491EFBD2704700229F
:10012000F6E710B513460A4604461946FFF7F0FFF6
:10013000204610BD064C0125064E05E0E36807CCBD
:100140002B430C3C98471034B442F7D3FFF7B6FF6B
:1001500098220008B8220008704770B500240146B4
:1001600020314A78022A03D004218163012416E059
:10017000026813680E25AB431360026813685B08BE
:100180005B0013600122056C1346AB40C56B6B60CE
:100190004A7000220A70416B002900D0884720462F
:1001A00070BD31B500F0BCF8009C0546601C00D065
:1001B000641C00F0B5F8401BA042FAD338BD000023
:1001C000F8B500238DE001249C40A44622407DD058
:1001D0004C68022C01D0122C0CD1DC08A40027188A
:1001E0003C6A5D07ED0E0F26AE40B4430E69AE408B
:1001F00026433E6205685E000324B4400F79A543A0
:10020000BF07BF0FB7402F4307604D68012D05D0D2
:10021000022D03D0112D01D0122D0ED18568CF688B
:10022000A543B7402F43876047686546AF430D79C4
:10023000ED06ED0F9D403D434560C568A5438C68C4
:10024000B4402C43C4604C68E40049D5284CA569EF
:1002500001263543A561A4699D0834400094254CCE
:10026000AD002F19BC689D072E0F0F25B540AC437C
:100270000925ED06A84201D100250FE01E4DA84238
:1002800001D101250AE01D4DA84201D1022505E05A
:100290001B4DA84201D1032500E00525B5402543AB
:1002A000BD60184C25684E689543F60300D515438C
:1002B000256065684E689543B60300D515436560B3
:1002C000A5684E689543F60202D500E008E01543A4
:1002D000A560E5684E689543B60200D51543E56014
:1002E0005B1C0A681446DC4000D06CE7F8BD0000D7
:1002F00000100240000001400004004800080048CF
:10030000000C0048000401400069084000D00120B2
:100310007047002A01D081617047816270470000F8
:1003200001480068704700002C00002070B50246AC
:1003300040325378202B1CD11378012B19D0012384
:10034000137024245470046825689D432560046854
:1003500025681E03B5432560046825680D432560A4
:10036000006801681943016020205070002010705F
:1003700070BD022070BD70B5024640325378202B0C
:100380001BD11378012B18D001241470242353702F
:1003900003681D68A5431D6005682B680F2636029B
:1003A000B3430902194329600068016821430160D1
:1003B000202050700020107070BD022070BD70476A
:1003C00070B506460068294A90423CD100293BD0CE
:1003D000012938D1264801F0BCFD254D254CAD1E24
:1003E000A8782070281D01F063FDA988A172080A71
:1003F0006072A81D01F0B8FDE8882071000AE07065
:100400002846083001F08AFD2889A071000A607131
:1004100028460A3001F067FD68892072000AE07101
:1004200068780122205C012428706406234629464E
:10043000304600F087FA002805D0234601222946DD
:10044000304600F07FFA70BD094900230122491EA1
:10045000304600F02FFA0028F5D00549002301228C
:10046000491E304600F026FA70BD000000540040DE
:1004700002000020B800002070B503689A6919686E
:10048000D40507D50C0605D5446C01252C434464DE
:100490002C02DC61530508D50B0606D5436C0824F5
:1004A00023434364E3010468E361920508D5090628
:1004B00006D5416C02221143416411020268D161E8
:1004C000416C0B22114202D0416C00F0B7FE70BDAE
:1004D000026891691268436B002B00D0184770477F
:1004E00010B5014640314A78202A01D0022010BDC3
:1004F00028224A7003494163042100F01FFE0020B6
:1005000010BD0000DD1600087047000070B5040043
:1005100006D02546403568780026002802D005E040
:10052000012070BD2E70204600F06AF9242068700A
:10053000206801684908490001600F2160680906C8
:1005400088432168086121688A680120C0038243CA
:100550008A60E1680129A16808D021229202114332
:1005600022689160E168022902D005E00143F7E7C3
:1005700001212268C902516021684A680F4B1A4361
:100580004A602168CA688243CA6061692069084379
:10059000A169090208432168C860216AE06908432B
:1005A00021680860206801680122114301606664C7
:1005B000202068702663AE70002070BD00800002AD
:1005C00010B5FFF78DFF10BD70477047FFB50546AA
:1005D00004464035687881B020287ED128780128EB
:1005E0007BD001202870FFF79BFE07460122009078
:1005F0001923D103204601F00FF900283FD1222012
:1006000068701020A87000266664039860620498E1
:1006100060856663618D09208002FF2903D9FF226E
:100620002285009034E0618D2185009036E02046DF
:10063000029901F0DFF836E001F012F9002803D04A
:10064000606C042847D01AE02068416A606A421C46
:1006500062620170208D401E80B22085618D491E2E
:10066000618500281FD1608D00281CD000970022D2
:10067000802120460A9B01F0CFF8002802D00320F9
:1006800005B0F0BD608DFF2805D9FF2222850096B8
:1006900001231B06CBE7608D20850096208D01236A
:1006A000C2B25B06C3E7608D0A9900283A4620462D
:1006B000C2D101F011F90028C2D121682020C861FF
:1006C00021684A68064B1A404A606870AE702E7006
:1006D0000020D5E701E00120D2E70220D0E70000AA
:1006E00000E800FEFFB5054604464035687881B055
:1006F00020287ED1287801287BD001202870FFF7A0
:100700000FFE0746012200901923D103204601F075
:1007100083F800283FD1212068701020A87000269F
:10072000666403986062049860856663618D012049
:100730004003FF2903D9FF222285009034E0618D18
:100740002185009036E02046029901F053F836E00A
:1007500001F0E9F8002803D0606C042847D01AE0C3
:10076000606A411C6162017820688162608D401E70
:100770006085208D401E0004000C20851FD1608DF7
:1007800000281CD000970022802120460A9B01F0FF
:1007900043F8002802D0032005B0F0BD608DFF288B
:1007A00005D9FF222285009601231B06CBE7608D29
:1007B00020850096208D0123C2B25B06C3E7608DC1
:1007C0000A9900283A462046C2D101F085F800284F
:1007D000C2D121682020C86121684A68064B1A40AE
:1007E0004A606870AE702E700020D5E701E00120ED
:1007F000D2E70220D0E7000000E800FE7047704713
:10080000F0B587B0044614216846FFF788FC244FF2
:1008100026680122234C9204122501210323224839
:10082000BE4220D166691643666166690291164030
:10083000C022059604910195039300926946FFF743
:10084000BFFCE169012040050143E161E16900224B
:10085000014005911146172000F004F9172000F01F
:10086000F7F807B0F0BD114FBE42FAD166691643E2
:100870006661666902911640032292020596049110
:100880000195039300926946FFF79AFCE169012004
:1008900080050143E161E16901400591E1E7000064
:1008A000005400400010024000040048005800407E
:1008B00070477047FFB505460F464035697881B0EF
:1008C000164604462820884338D1002F36D0002E03
:1008D00034D00621204600F005FC2878012805D0F8
:1008E000012028706878292803D006E0022005B08E
:1008F000F0BD0121204600F0F5FB2A206870202081
:10090000A8700020606421684A680123DB039A43D1
:100910004A6067626685618D21850499E1620849B4
:10092000616321688A69D20301D40822CA612870F0
:100930000621204600F002FC0020D8E70120D6E77F
:10094000DD160008FFB505460F464035697881B0D1
:10095000164604462820884338D1002F36D0002E72
:1009600034D00521204600F0BDFB2878012805D0B1
:100970000120287068782A2803D006E0022005B0FC
:10098000F0BD0221204600F0ADFB29206870202038
:10099000A8700020606421684A680123DB039A4341
:1009A0004A6067626685618D21850499E162084924
:1009B000616321688A69D20301D50822CA6128705F
:1009C0000521204600F0BAFB0020D8E70120D6E739
:1009D000DD16000802480168491C016070470000EC
:1009E0002C00002010B50648016810221143016058
:1009F000002000F007F800F017F8002010BD0000FC
:100A00000020024010B5044600F03AF97D21C900EB
:100A1000FFF768FB00F022FB00222146501E00F089
:100A200021F8002010BD000008B5084881690122A6
:100A300011438161816911400091C26901040A4337
:100A4000C261C0690840009008BD0000001002406B
:100A5000C106C90E012088400149086070470000A6
:100A600000E100E010B501F05DF810BDF8B50546F5
:100A70000068354CC00352D5E0690026C00007D499
:100A8000E16920040143E161E1690140012600912F
:100A90002E480168C90510D4016882151143016010
:100AA000FFF73EFC074604E0FFF73AFCC01B642852
:100AB00024D826480068C005F6D5206A03273F02DF
:100AC000384020D06968394081421CD0206A226AAF
:100AD000B843012109040A432262226A8A4322623E
:100AE0002062C0070FD0FFF71BFC009008E0FFF763
:100AF00017FC0099411A1648814201D90320F8BD1C
:100B0000206A8007F3D5206A6968B84308432062E9
:100B1000002E04D0E169012000078143E1612878BB
:100B2000C00705D0206BA9688008800008432063B7
:100B30002878800605D5206B10218843E968084392
:100B400020630020F8BD000000100240007000404B
:100B500088130000F8B5054644480E460068C007F3
:100B6000C00FB0420AD241480168490849003143E8
:100B700001600068C007C00FB0425CD128783C4CCF
:100B8000800705D56068F0218843A9680843606044
:100B90002878C0073FD06868012813D02168022850
:100BA00013D08907002946DA616889088900014362
:100BB0006160FFF7B5FB6968074601290DD002297E
:100BC00017D024E021688903ECE78901EAE7FFF701
:100BD000A7FBC11B2748814217D860680007800F18
:100BE0000128F4D117E0FFF79BFBC11B214881428C
:100BF0000BD860680007800F0228F4D10BE0FFF7E4
:100C00008FFBC11B1B48814201D90320F8BD6068DE
:100C10000007800FF3D115480168C907C90FB14219
:100C20000BD9016849084900314301600068C007D9
:100C3000C00FB04201D00120F8BD2878400706D58A
:100C40006068072109028843E9680843606000F092
:100C50001DF86168084A0906090F515CC840074938
:100C600008600020FFF7CEFE0020F8BD0020024003
:100C70000010024088130000882200083000002085
:100C800001480068704700003000002010B513A331
:100C90000FCB88B06C460FC414A30FCB0FC41749F9
:100CA0004A680C20134603401548042B02D0082B39
:100CB00002D0401008B010BD93021B0F6C46E45CDC
:100CC000C96A04AB0907090F595CD20303D5FFF7C2
:100CD00009FA6043EEE70B486043EBE702030405C3
:100CE000060708090A0B0C0D0E0F10100102030471
:100CF00005060708090A0B0C0D0E0F100010024024
:100D00000024F40000093D00FEB504460078D04DF3
:100D1000C00747D068680007800F012807D06868BF
:100D20000007800F022809D16868C00306D528682B
:100D3000800337D5606800287ED033E001206268E8
:100D40000004012A11D08100002A01D0052A10D008
:100D50002A6882432A6028688843286060680028DF
:100D600014D0FFF7DDFA06460CE02968014329603C
:100D7000F4E72A680A432A60F7E7FFF7D1FA801BF5
:100D800064286FD828688003F7D50BE0FFF7C8FA0E
:100D9000064604E0FFF7C4FA801B6428F1D82868EF
:100DA0008003F7D420780126800700283BDA6868A2
:100DB0000007800F07D068680007800F022809D15C
:100DC0006868C00306D42868800715D5E068012844
:100DD00032D111E0E0680028286815D0304328603F
:100DE000FFF79EFA074604E0FFF79AFAC01B0228B5
:100DF000C7D828688007F7D52868F8218843216973
:100E0000C900084328600EE0400840002860FFF752
:100E100087FA074604E0FFF783FAC01B0228B0D820
:100E200028688007F7D42078000724D5E0690028D7
:100E3000686A10D0304300E008E16862FFF770FA9A
:100E4000074604E0FFF76CFAC01B022899D8686ACD
:100E50008007F7D50FE0400840006862FFF760FAAE
:100E6000074605E09DE0FFF75BFAC01B022888D823
:100E7000686A8007F7D4207804274007002860DAE2
:100E800000200190E869C00008D4E969B806014370
:100E9000E961E96901400120009101906D48016814
:100EA000C90511D40168821511430160FFF738FAB2
:100EB000009005E0FFF734FA0099401A642870D8D2
:100EC00064480068C005F5D5A06801280AD000284C
:100ED00001D0052810D0286A400840002862286AFE
:100EE000B84301E0286A30432862A068002812D085
:100EF000FFF716FA00900AE0286A38432862F1E703
:100F0000FFF70EFA0099411A5348814249D8286ADE
:100F10008007F5D50DE0FFF703FA009006E0FFF734
:100F2000FFF90099411A4C4881423AD8286A800753
:100F3000F5D40198002804D0E96901200007814315
:100F4000E9612078C00635D5606901280CD0401DC4
:100F5000686B23D038436863686B4008400068635F
:100F6000FFF7DEF9064622E0686B38436863686B7A
:100F700030436863FFF7D4F9064604E0FFF7D0F981
:100F8000801B02285BD8686B8007F7D5686BF82157
:100F90008843A169C900084368630BE0B8436863EC
:100FA000F4E74CE0FFF7BCF9801B022847D8686BD8
:100FB0008007F7D4206A002846D069680907890F9E
:100FC000022943D0012636060228286805D0B043FE
:100FD0002860FFF7A5F9044633E0B0432860FFF727
:100FE0009FF9074604E0FFF79BF9C01B022826D8AB
:100FF00028688001F7D4E86AE16A00090001084323
:10100000E862616AA06A084369683D22120491435C
:1010100008436860286830432860FFF781F9044678
:1010200004E0FFF77DF9001B022808D8286880013A
:10103000F7D509E0FFF774F9001B022801D9032056
:10104000FEBD28688001F5D40020FEBD0120FEBD54
:10105000001002400070004088130000094910B5DC
:10106000401E884201D9012010BD074C6061032158
:10107000081F00F057FD0020A0610720206100201C
:1010800010BD0000FFFFFF0000E000E0FEE70000F1
:1010900010B50648006880694005400F034802D03B
:1010A000FFF7EAF910BDFFF713FA10BDCC000020DE
:1010B00010B5406A01684A680123DB031A434A609D
:1010C000826B00215163C26B5163014640314A7803
:1010D000602A02D0FFF718FA10BD20224A70FFF7ED
:1010E0006EF910BDF0B503460022CE074033282428
:1010F000B025002E05D05E7842222746B74300D0A7
:10110000F2228E0705D544265B7832439C4300D0FB
:101110002A434B0701D5B8231A4311238B4301D12E
:1011200090231A4312238B4301D160210A430068A4
:101130000168914301600020F0BD000070B5164DBC
:101140001223446B002220268B43AC4202D0134D65
:10115000AC420DD14C0700D5B82211248C4301D1EB
:1011600090210A43002B11D1324340210A430DE064
:101170004C0700D5B822CC0701D0F22422438907BE
:1011800001D5F4210A43002B00D1324300680168E5
:1011900011430160002070BDB115000873160008EE
:1011A00001688A69D243920701D400228A620068EA
:1011B0008169C943C90703D0816901221143816153
:1011C0007047F8B5054604464035687828218143C4
:1011D000206804D00821C16100202870F8BD816911
:1011E000C903CF0F8169FE230E0C81681E408A055A
:1011F000C168920D19408C46E168022912D106217E
:10120000D3090E400B409E420BD1A16C491CA16436
:10121000A16C0229E2D10021A1640823C3612970D5
:1012200007E0664604212046FFF75CFF0020287097
:10123000324639462046FFF7C3F8F8BDF8B5002618
:10124000054640350446AE702C48E0626685606C09
:101250000843606468782027282823D068782928E4
:1012600020D068782A281DD007212046FFF73AFFB2
:101270006878602800D06F70266366632068016814
:101280004A041F49026817D501239B039A43026051
:10129000A06B41632E70A06BFEF75FFF00281DD08E
:1012A000A06B19E003212046FFF71CFF282068707F
:1012B000266314486063E1E7120410D50268012335
:1012C000DB039A430260E06B41632E70E06BFEF734
:1012D00044FF002802D0E06B416B8847F8BD687876
:1012E000602804D02E702046FFF70EF9F8BD6F700D
:1012F0002E702046FFF763F8F8BD00000000FFFFE6
:10130000B1100008DD16000870B504461548E0620B
:101310000025256320222046403006464270857015
:101320006563480711D52068416A606A421C6262A1
:101330000170208D002808D0401E2085608D401E41
:101340006085606C04210843606407212046FFF734
:10135000C9FE21681020C86135702046FFF730F9BA
:1013600070BD00000000FFFFF8B5064600682027AA
:10137000C76130684268224B1A40426000253563DD
:1013800020487563F062C80606D531681020C86130
:10139000706C0421084370643046FFF701FF03219D
:1013A0003046FFF79FFE706C002814D1344640345D
:1013B000607860280FD06078212811D060782228CA
:1013C00008D16770A078A57040282570304614D0E9
:1013D000FFF7FAF8F8BD716C3046FFF72FFFF8BD44
:1013E0006770A078A57040282570304602D0FFF7BE
:1013F000ECF8F8BDFFF703FAF8BDFFF7FFF9F8BD09
:1014000000E800FE0000FFFFF8B504460068202653
:101410000F46C66121680820C86107212046FFF7F2
:1014200061FE20684168B202114341602068416852
:101430002D4A114041602046FFF7B2FE2068016846
:10144000254649044035002902DB0168090406D518
:10145000697821292FD0E16B096849686185628D1F
:101460000421002A02D0626C0A4362647A070FD515
:10147000426A606A431C63620270208D002807D0B4
:10148000401E2085608D401E6085606C084360644E
:1014900000202063A8706063616C00290DD0616C2E
:1014A0002046FFF7CBFE6878282803D1394620462E
:1014B000FFF72AFFF8BDA16BCEE7E26A0B498A422B
:1014C00006D0E1626E7028702046FFF779F8F8BD0B
:1014D00069786E7022292870204602D0FFF7E9F95A
:1014E000F8BDFFF7E5F9F8BD00E800FE0000FFFFDA
:1014F00070B50026044640340546A6706178282061
:1015000029290ED061782A290AD160702220286307
:1015100002212846FFF7E6FD26702846FFF7C8F9A6
:1015200070BD60702120286301212846FFF7DAFD95
:1015300026702846FFF7BDF970BD0000F7B50446D8
:1015400000680E468069C043C0062CD4202725467B
:10155000403520688069C04380060FD5701CF8D0E4
:10156000002E05D0FEF7DCFE0299401AB042F0D9F9
:101570006F700020A87028700320FEBD2168102025
:10158000C8612068C7612046FFF70AFE20684168ED
:10159000064A11404160042060646F700020A8700A
:1015A00028700120FEBD0020FEBD000000E800FE06
:1015B000F8B50546044640352878012816D00120A4
:1015C0002870C8060026002812DAD00610D5216837
:1015D0001020C861606C0421084360641221204619
:1015E000FFF7ACFD2046FFF7DBFD3FE00220F8BD32
:1015F000080634D5500632D5206801684022914350
:101600000160608D002825D0206840688105608DCC
:10161000890DFF2803D9FF202085930403E0608D06
:10162000012320855B060096208DC2B2204600F083
:10163000E1F8608D218D401A608568782228206845
:10164000016804D001229203114301600EE00122DF
:10165000D203F9E740212046FFF7F0FD06E08806B7
:1016600004D5900602D52046FFF77EFE2E7000209E
:10167000F8BD10B5044640342378012B15D0012362
:101680002370CB0618D5D30616D5617821290ED044
:10169000C16B09684968102200290AD00168CA6133
:1016A000416C04221143416414E0022010BD816B9F
:1016B000EFE70068C2610DE00B0705D5130703D5FE
:1016C00000680821C16105E08B0603D5920601D5AB
:1016D000FFF79AFE0020207010BD0000F8B5054607
:1016E00004464035287816460F46012811D00120BF
:1016F00028703F49F8062DD5F0062BD5628D1020B5
:10170000002A08D02168C861606C04210843606425
:1017100062E00220F8BDE36A01225206934202D041
:10172000E36A934202D16A78282A08D0E26A8A42A0
:1017300002D06978292907D02168C8614CE0394670
:101740002046FFF7E1FD47E02168C8612046FFF72A
:1017500027FD3EE0780717D5700715D5608D002866
:101760000BD02068426A606A431C63620270208D5D
:10177000401E2085608D401E6085608D00282BD125
:10178000E06A884225D127E0380706D5300704D51E
:1017900039462046FFF715FD1EE0B8071CD5B007F7
:1017A0001AD5608D00280CD0606A411C61622168E6
:1017B00000788862608D401E6085208D401E2085E7
:1017C0000AE0E06A01210906884202D0E06A0028A6
:1017D00002D12046FFF78CFEB80605D5B00603D52A
:1017E00039462046FFF710FE00202870F8BD0000A3
:1017F0000000FFFF70B50568049C68688905890DC5
:101800001204044E114319433040214301436960DF
:1018100070BD0000009800FCF8B51C4617460E4647
:10182000054611E0601C0FD0002C05D0FEF778FDB6
:101830000699401AA04207D9202040356870002040
:10184000A87028700320F8BD286881693046884355
:1018500004D00020B842E5D00020F8BD0120F9E70F
:10186000F7B5002720260546044640352AE02046E5
:10187000029A0199FFF762FE002801D00120FEBD07
:1018800020688069C04380060BD42068C661206848
:101890004168104A1140416067646E70AF702F70EC
:1018A000ECE70198002806D0FEF73AFD0299411AAC
:1018B0000198814206D9606C304360646E702F706D
:1018C0000320FEBD20688069C0434007CFD40020BC
:1018D000FEBD000000E800FE70B516460D46044649
:1018E0001AE0324629462046FFF728FE002801D09C
:1018F000012070BD002D04D0FEF712FD801BA84210
:101900000AD9616C2020014361644034607000207A
:10191000A0702070032070BD20688069C0438006DD
:10192000DFD4002070BD70B516460D4604461CE09D
:10193000324629462046FFF701FE002801D001204B
:1019400070BD681C11D0002D04D0FEF7E9FC801B8F
:10195000A8420AD9616C2020014361644034607060
:101960000020A0702070032070BD20688069C043F3
:101970008007DDD4002070BDF0B587B01421684623
:10198000FEF7CDFB2D4842690121C9040A4342619B
:1019900042690A4005924269C9000A4342614269AC
:1019A0000A400592426949110A43426142690A406C
:1019B0000592426949000A43426140690526084090
:1019C0001F4F36030590002231463846FEF7A1FC32
:1019D00007204003032400256A4631C2694619489E
:1019E000FEF7EEFB18486A4631C209206946C00678
:1019F000FEF7E6FB15486A4631C269463846FEF7EF
:101A0000DFFB012001900295694600960395384658
:101A1000FEF7D6FB01204003009001950295694630
:101A200003953846FEF7CCFBC0206A4631C26946B2
:101A30000748FEF7C5FB07B0F0BD000000100240EC
:101A40000004004800080048FF9900003F830000A0
:101A50000014004810B5194C174820601848606001
:101A600001141848FEF750FC002822D01620A06070
:101A70000021216161610120A161E060C004216257
:101A8000E0610E48FEF742FD002801D0FEF764FB3E
:101A900000210A48FEF74AFC002801D0FEF75CFB53
:101AA00000210648FEF767FC002801D0FEF754FB32
:101AB00010BD1420DBE7000000540040CC000020E3
:101AC0000E0900200004004810B5134811490160B8
:101AD00012494160002181600161416181610122FF
:101AE000C161C2600162FEF711FD002801D0FEF75E
:101AF00033FB00210848FEF719FC002801D0FEF74F
:101B00002BFB00210448FEF736FC002801D0FEF72D
:101B100023FB10BD00580040180100205D3E30201E
:101B2000704700008307FF22DB0E9A408907090EE9
:101B3000994000280BDA0007000F0838830808488E
:101B40009B001818C36993430B43C3617047830814
:101B500004489B001B18186890430843186070479E
:101B600000ED00E000E400E07047704710B5FEF7BC
:101B700031FF10BD30B595B030216846FEF7CFFA81
:101B800000240F940320009001200D9410941294CF
:101B9000019003900E941394102004900003099078
:101BA00080000C9402250A90119408950B946846C5
:101BB000FFF7AAF807200C900E9401210D950F94C1
:101BC0000CA8FEF7C7FF212010901294139410A8C0
:101BD000FEF74CFF15B030BD1348016801221143D8
:101BE00001604168114A114041600168104A11408A
:101BF00001600168012292049143016041683F2223
:101C0000120491434160C16A09090901C162016B73
:101C1000FF22143291430163416B4908490041633B
:101C20000021816070470000001002400CB8FF08DE
:101C3000FFFFF6FE02E008C8121F08C1002AFAD111
:101C400070477047002001E001C1121F002AFBD13C
:101C5000704710B50446012000F0A1F9002813D008
:101C6000002C01D0012000E0002000F0AFF9002896
:101C70000AD000F00AF8002806D00121084600F03A
:101C800065FA002800D0012010BD10B50121002008
:101C900000F05CFA002800D0012010BD10B5044609
:101CA000022000F08AFA002818D0032000F017FA6A
:101CB000002813D0002C01D0012000E0002000F00B
:101CC00094FA00280AD0FFF7E0FF002806D001218F
:101CD000022000F03BFA002800D0012010BD08B51A
:101CE0006946802000F09AFA002802D06846007801
:101CF00008BDFF2008BD000008B56946922000F02D
:101D00008DFA002806D068460078AB2803D09C28BE
:101D100001D0002008BD0021072000F017FA00289C
:101D2000F8D0DB21812000F09DFA0028F2D0F621C6
:101D3000832000F097FA0028ECD087218E2000F055
:101D400091FA0028E6D000219D2000F08BFA0028AF
:101D5000E0D000219E2000F085FA0028DAD0602132
:101D60008D2000F07FFA0028D4D0032000F0B7F9CE
:101D70000028CFD0022000F020FA0028CAD001208D
:101D800000F00DF90028C5D0002000F00DFA002861
:101D9000C0D0322000F0FFF90028BBD0324800F05C
:101DA000C5F90028B6D0002000F0B0F90028B1D065
:101DB00011218C2000F056FA0028ABD00121902090
:101DC00000F050FA0028A5D000219F2000F04AFA28
:101DD00000289FD0282000F011F900289AD01E205A
:101DE00000F015F9002895D04021A22000F03AFA21
:101DF00000288FD0022000F013F900288AD0032099
:101E000000F03EF9002885D0012000F051F90028AB
:101E100080D00021A42000F025FA002886D00021DF
:101E2000A52000F01FFA002886D00021A72000F08E
:101E300019FA002886D00021A92000F013FA002802
:101E400086D0C921A62000F00DFA002886D00021F6
:101E5000AA2000F007FA002886D0002000F0F8F849
:101E6000002886D0012008BDFFFF0000FEF7BAFD64
:101E7000FFF780FEFFF780FDFFF7ECFDFFF724FE84
:101E8000FFF73AFF6420FEF78CF9FFF735FF642077
:101E9000FEF787F9FFF7F9FE0448FEF721FB002063
:101EA000FFF7FCFE0020FFF7D4FEFEE7CC00002089
:101EB00038B50446002020806946942000F0AEF931
:101EC00000280FD06846007820806946952000F0F1
:101ED000A5F9002806D0694609782088090240182B
:101EE0002080012038BD38B5044600202080694696
:101EF0009A2000F093F900280FD0684600782080DF
:101F000069469B2000F08AF9002806D069460978C6
:101F10002088090240182080012038BD38B50446C9
:101F2000002020806946982000F078F900280FD022
:101F30006846007820806946992000F06FF90028F3
:101F400006D06946097820880902401820800120BF
:101F500038BD10B50021017001469C2000F05EF9EB
:101F6000002800D0012010BD38B504460020208094
:101F70006946962000F052F900280FD06846007894
:101F800020806946972000F049F9002806D069466C
:101F900009782088090240182080012038BD38B512
:101FA000044669468F2000F039F900280DD06A46B2
:101FB0001178A0078908800F8900014311708F20D4
:101FC00000F050F9002800D0012038BD38B5044693
:101FD0006946802000F022F900280ED06A46117868
:101FE000EF22E0071140C00E01436A4611708020C5
:101FF00000F038F9002800D0012038BD10B50146A6
:10200000A02000F02FF9002800D0012010BD10B54D
:102010000146A12000F026F9002800D0012010BDC3
:1020200038B504466946A32000F0F8F800280ED021
:102030006A4611789F22A0071140400E01436A466C
:102040001170A32000F00EF9002800D0012038BD47
:1020500038B504466946AB2000F0E0F800280ED001
:102060006A461178FD22E0071140800F01436A465D
:102070001170AB2000F0F6F8002800D0012038BD28
:1020800038B504466946A32000F0C8F800280ED0F1
:102090006A461178E722A0071140C00E01436A4644
:1020A0001170A32000F0DEF8002800D0012038BD18
:1020B00038B504466946A32000F0B0F800280DD0DA
:1020C0006A4611786007C908400FC90001431170C2
:1020D000A32000F0C7F8002800D0012038BD38B593
:1020E000044669468F2000F099F800280DD06A4612
:1020F0001178A0078906000E890E014311708F2008
:1021000000F0B0F8002800D0012038BD10B5C1B2F1
:10211000040A862000F0A6F8002806D02146872071
:1021200000F0A0F8002800D0012010BD10B5C1B209
:10213000040A842000F096F8002806D02146852065
:1021400000F090F8002800D0012010BD70B50D46B9
:102150000446FFF7C4FD0146FF280AD0EA07D20F64
:10216000062C0AD80120A040002A04D00843C1B29E
:102170000AE0002070BD814306E0072C04D1002A4C
:1021800001D07F2100E00021802000F06BF80028C2
:10219000F0D0012070BD10B501468B2000F062F830
:1021A000002800D0012010BD10B50146892000F0A4
:1021B00059F8002800D0012010BD38B50446694602
:1021C0008F2000F02BF800280ED06A461178F322F9
:1021D000A0071140000F01436A4611708F2000F0E4
:1021E00041F8002800D0012038BD38B504466946C2
:1021F000802000F013F800280ED06A461178DF2204
:10220000E0071140800E01436A461170802000F003
:1022100029F8002800D0012038BD000038B50C4650
:1022200000F010F8002809D00020C04300900123DE
:10223000224672210248FEF7C9F9012038BD00008C
:102240001801002001B582B00020C0430090012396
:1022500002AA72210248FEF745FA01200EBD0000D5
:10226000180100201CB56A46107151710020C0434E
:102270000090022301AA72210248FEF733FA0120DE
:102280001CBD00001801002000000000000000003C
:102290000102030406070809B82200080000002014
:1022A00034000000341C0008EC2200083400002038
:1022B00034050000441C000800000000000000007D
:1022C000000000000000000000000000000000000E
:1022D00000000000000000000000000000000000FE
:0C22E000000000000000000000127A0066
:04000005080000B53A
:00000001FF
